{
  "_format": "hh-sol-artifact-1",
  "contractName": "ProjectFactory",
  "sourceName": "contracts/ProjectFactory.sol",
  "abi": [
    {
      "anonymous": false,
      "inputs": [
        {
          "indexed": true,
          "internalType": "uint256",
          "name": "projectId",
          "type": "uint256"
        },
        {
          "indexed": true,
          "internalType": "address",
          "name": "owner",
          "type": "address"
        }
      ],
      "name": "ProjectCreated",
      "type": "event"
    },
    {
      "inputs": [
        {
          "internalType": "string",
          "name": "_name",
          "type": "string"
        },
        {
          "internalType": "string",
          "name": "_founderName",
          "type": "string"
        },
        {
          "internalType": "uint256",
          "name": "_budget",
          "type": "uint256"
        },
        {
          "internalType": "uint256",
          "name": "_duration",
          "type": "uint256"
        },
        {
          "internalType": "uint256",
          "name": "_proposalLimit",
          "type": "uint256"
        },
        {
          "internalType": "uint256",
          "name": "_investmentLimit",
          "type": "uint256"
        }
      ],
      "name": "createProject",
      "outputs": [],
      "stateMutability": "nonpayable",
      "type": "function"
    },
    {
      "inputs": [],
      "name": "getNumberOfProjects",
      "outputs": [
        {
          "internalType": "uint256",
          "name": "",
          "type": "uint256"
        }
      ],
      "stateMutability": "view",
      "type": "function"
    },
    {
      "inputs": [
        {
          "internalType": "uint256",
          "name": "",
          "type": "uint256"
        }
      ],
      "name": "projectIdToAddress",
      "outputs": [
        {
          "internalType": "address",
          "name": "",
          "type": "address"
        }
      ],
      "stateMutability": "view",
      "type": "function"
    },
    {
      "inputs": [
        {
          "internalType": "string",
          "name": "",
          "type": "string"
        }
      ],
      "name": "projectNametoprojectId",
      "outputs": [
        {
          "internalType": "uint256",
          "name": "",
          "type": "uint256"
        }
      ],
      "stateMutability": "view",
      "type": "function"
    }
  ],
  "bytecode": "0x608060405260008055348015601357600080fd5b50613825806100236000396000f3fe608060405234801561001057600080fd5b506004361061004c5760003560e01c806304c956bf1461005157806319ba0b63146100665780632ad968d71461007d578063303199db146100a8575b600080fd5b61006461005f36600461034c565b6100e9565b005b6000545b6040519081526020015b60405180910390f35b61006a61008b3660046103d8565b805160208183018101805160028252928201919093012091525481565b6100d16100b6366004610415565b6001602052600090815260409020546001600160a01b031681565b6040516001600160a01b039091168152602001610074565b6002866040516100f99190610452565b90815260200160405180910390205460001461015c5760405162461bcd60e51b815260206004820152601d60248201527f50726f6a65637420776974682074686973206e616d652065786973747300000060448201526064015b60405180910390fd5b838110801561016a57508382105b6101b65760405162461bcd60e51b815260206004820181905260248201527f4c696d69747320657863656564207468652070726f6a656374206275646765746044820152606401610153565b6000805490806101c58361046e565b919050555060008054878733888888886040516101e19061029a565b6101f29897969594939291906104c1565b604051809103906000f08015801561020e573d6000803e3d6000fd5b5060008054604051929350339290917f63c92f9505d420bff631cb9df33be952bdc11e2118da36a850b43e6bcc4ce4de91a36000546002886040516102539190610452565b90815260408051602092819003830190209290925560008054815260019091522080546001600160a01b0319166001600160a01b0392909216919091179055505050505050565b6132cc8061052483390190565b634e487b7160e01b600052604160045260246000fd5b600082601f8301126102ce57600080fd5b813567ffffffffffffffff8111156102e8576102e86102a7565b604051601f8201601f19908116603f0116810167ffffffffffffffff81118282101715610317576103176102a7565b60405281815283820160200185101561032f57600080fd5b816020850160208301376000918101602001919091529392505050565b60008060008060008060c0878903121561036557600080fd5b863567ffffffffffffffff81111561037c57600080fd5b61038889828a016102bd565b965050602087013567ffffffffffffffff8111156103a557600080fd5b6103b189828a016102bd565b96999698505050506040850135946060810135946080820135945060a09091013592509050565b6000602082840312156103ea57600080fd5b813567ffffffffffffffff81111561040157600080fd5b61040d848285016102bd565b949350505050565b60006020828403121561042757600080fd5b5035919050565b60005b83811015610449578181015183820152602001610431565b50506000910152565b6000825161046481846020870161042e565b9190910192915050565b60006001820161048e57634e487b7160e01b600052601160045260246000fd5b5060010190565b600081518084526104ad81602086016020860161042e565b601f01601f19169290920160200192915050565b888152610100602082015260006104dc61010083018a610495565b82810360408401526104ee818a610495565b6001600160a01b039890981660608401525050608081019490945260a084019290925260c083015260e090910152939250505056fe610140604052600060088190556009819055600a819055600b819055600c805460ff19908116909155600d91909155600e8054909116600117905534801561004657600080fd5b506040516132cc3803806132cc833981016040819052610065916101f7565b846001600160a01b03811661009457604051631e4fbdf760e01b81526000600482015260240160405180910390fd5b61009d816100ee565b50608088905260016100af888261033b565b5060026100bc878261033b565b506001600160a01b0390941660a05260c0929092526101009190915260e09190915261012052505042600d55506103f9565b600080546001600160a01b038381166001600160a01b0319831681178455604051919092169283917f8be0079c531659141344cd1fd0a4f28419497f9722a3daafe3b4186f6b6457e09190a35050565b634e487b7160e01b600052604160045260246000fd5b600082601f83011261016557600080fd5b81516001600160401b0381111561017e5761017e61013e565b604051601f8201601f19908116603f011681016001600160401b03811182821017156101ac576101ac61013e565b6040528181528382016020018510156101c457600080fd5b60005b828110156101e3576020818601810151838301820152016101c7565b506000918101602001919091529392505050565b600080600080600080600080610100898b03121561021457600080fd5b885160208a01519098506001600160401b0381111561023257600080fd5b61023e8b828c01610154565b60408b015190985090506001600160401b0381111561025c57600080fd5b6102688b828c01610154565b60608b015190975090506001600160a01b038116811461028757600080fd5b60808a015160a08b015160c08c015160e0909c01519a9d999c50979a91999098919650945092505050565b600181811c908216806102c657607f821691505b6020821081036102e657634e487b7160e01b600052602260045260246000fd5b50919050565b601f82111561033657806000526020600020601f840160051c810160208510156103135750805b601f840160051c820191505b81811015610333576000815560010161031f565b50505b505050565b81516001600160401b038111156103545761035461013e565b6103688161036284546102b2565b846102ec565b6020601f82116001811461039c57600083156103845750848201515b600019600385901b1c1916600184901b178455610333565b600084815260208120601f198516915b828110156103cc57878501518255602094850194600190920191016103ac565b50848210156103ea5786840151600019600387901b60f8161c191681555b50505050600190811b01905550565b60805160a05160c05160e0516101005161012051612e6161046b60003960006102b20152600081816103640152610a4701526000818161062401526108f501526000818161071d0152610a9001526000818161043401526114540152600081816105f001526119c70152612e616000f3fe6080604052600436106102465760003560e01c80638da5cb5b11610139578063cf44b2ef116100b6578063f0c539961161007a578063f0c5399614610754578063f264c5ab14610774578063f2fde38b14610794578063f9000ba8146107b4578063fb627a9a146107d4578063fc291775146107f457600080fd5b8063cf44b2ef146106b3578063e1604b70146106e0578063ec8a3cff146106f6578063ed01bf291461070b578063ef430aa61461073f57600080fd5b8063af640d0f116100fd578063af640d0f146105de578063ba7efcdd14610612578063c228995d14610646578063ca7fad0514610666578063cd585b371461069357600080fd5b80638da5cb5b1461052d57806397281f6a1461054b5780639d76ea581461057b578063a78d80fc1461059b578063abe70951146105b157600080fd5b80634cc3c712116101c757806364390ff11161018b57806364390ff1146104b75780636a29150e146104d7578063715018a6146104ed5780637284e4161461050257806378e979251461051757600080fd5b80634cc3c712146103d55780634d2b1978146104025780634d853ee514610422578063553181ec1461046e57806356a58ebf1461048457600080fd5b80632202ab691161020e5780632202ab691461032257806322f3e2d41461033857806324e8ff4b146103525780633626bc61146103865780633bd8e51e146103a657600080fd5b806304b43ca61461024b57806306fdde03146102765780630a8b78261461028b5780630fb5a6b4146102a05780631976f4a7146102e2575b600080fd5b34801561025757600080fd5b5061026061080a565b60405161026d9190611b3a565b60405180910390f35b34801561028257600080fd5b50610260610898565b61029e610299366004611bf9565b6108a5565b005b3480156102ac57600080fd5b506102d47f000000000000000000000000000000000000000000000000000000000000000081565b60405190815260200161026d565b3480156102ee57600080fd5b506103126102fd366004611c36565b60166020526000908152604090205460ff1681565b604051901515815260200161026d565b34801561032e57600080fd5b506102d460055481565b34801561034457600080fd5b50600e546103129060ff1681565b34801561035e57600080fd5b506102d47f000000000000000000000000000000000000000000000000000000000000000081565b34801561039257600080fd5b5061029e6103a1366004611c5d565b610a2b565b3480156103b257600080fd5b506103c66103c1366004611c36565b610c1a565b60405161026d93929190611cd4565b3480156103e157600080fd5b506102d46103f0366004611d09565b60156020526000908152604090205481565b34801561040e57600080fd5b5061029e61041d366004611d32565b610d4d565b34801561042e57600080fd5b506104567f000000000000000000000000000000000000000000000000000000000000000081565b6040516001600160a01b03909116815260200161026d565b34801561047a57600080fd5b506102d4600a5481565b34801561049057600080fd5b506104a461049f366004611c36565b610dcb565b60405161026d9796959493929190611d9b565b3480156104c357600080fd5b506103126104d2366004611de0565b610e92565b3480156104e357600080fd5b506102d4600b5481565b3480156104f957600080fd5b5061029e610efb565b34801561050e57600080fd5b50610260610f0f565b34801561052357600080fd5b506102d4600d5481565b34801561053957600080fd5b506000546001600160a01b0316610456565b34801561055757600080fd5b50610312610566366004611c36565b60176020526000908152604090205460ff1681565b34801561058757600080fd5b50600454610456906001600160a01b031681565b3480156105a757600080fd5b506102d460085481565b3480156105bd57600080fd5b506102d46105cc366004611d09565b60106020526000908152604090205481565b3480156105ea57600080fd5b506102d47f000000000000000000000000000000000000000000000000000000000000000081565b34801561061e57600080fd5b506102d47f000000000000000000000000000000000000000000000000000000000000000081565b34801561065257600080fd5b506102d4610661366004611de0565b610f1c565b34801561067257600080fd5b506102d4610681366004611c36565b60146020526000908152604090205481565b34801561069f57600080fd5b506102606106ae366004611c36565b610f4d565b3480156106bf57600080fd5b506102d46106ce366004611c36565b60136020526000908152604090205481565b3480156106ec57600080fd5b506102d460095481565b34801561070257600080fd5b5061029e610f66565b34801561071757600080fd5b506102d47f000000000000000000000000000000000000000000000000000000000000000081565b34801561074b57600080fd5b50610260610f7a565b34801561076057600080fd5b5061029e61076f366004611c36565b610f87565b34801561078057600080fd5b5061029e61078f366004611e02565b6112ed565b3480156107a057600080fd5b5061029e6107af366004611d09565b611478565b3480156107c057600080fd5b5061029e6107cf366004611ecc565b6114b6565b3480156107e057600080fd5b506102d46107ef366004611d09565b611888565b34801561080057600080fd5b506102d460035481565b6002805461081790611f05565b80601f016020809104026020016040519081016040528092919081815260200182805461084390611f05565b80156108905780601f1061086557610100808354040283529160200191610890565b820191906000526020600020905b81548152906001019060200180831161087357829003601f168201915b505050505081565b6001805461081790611f05565b600c5460ff1615156001146108f35760405162461bcd60e51b815260206004820152600f60248201526e11185bc81b9bdd0818dc99585d1959608a1b60448201526064015b60405180910390fd5b7f00000000000000000000000000000000000000000000000000000000000000003410156109635760405162461bcd60e51b815260206004820152601960248201527f4d6565742074686520696e766573746d656e74206c696d69740000000000000060448201526064016108ea565b33600081815260156020526040902054156109ab576001600160a01b038116600090815260156020526040812080543492906109a0908490611f4f565b909155506109d19050565b6109b582826118fc565b6001600160a01b03811660009081526015602052604090203490555b34600360008282546109e39190611f4f565b90915550506009546040517f5909eeae9d21e6fa8ac76ff35662ef4bf97b31cef31b127f4195177e1e2b8a8390610a1f90859085903490611f62565b60405180910390a25050565b610a33611a11565b600c5460ff1615156001148015610a6c57507f000000000000000000000000000000000000000000000000000000000000000060035410155b8015610a87575083600b54600354610a849190611f90565b10155b8015610ab357507f00000000000000000000000000000000000000000000000000000000000000008411155b610aff5760405162461bcd60e51b815260206004820152601860248201527f52656163682050726f706f73616c20436f6e646974696f6e000000000000000060448201526064016108ea565b60088054906000610b0f83611fa3565b919050555060006040518060e0016040528060085481526020018881526020018781526020018681526020014286610b479190611f4f565b8152602001610b564286611f4f565b815283151560209182015260085460009081526011825260409020825181559082015191925082916001820190610b8d908261200b565b506040828101516002830155606083015160038301556080830151600483015560a0830151600583015560c0909201516006909101805460ff19169115159190911790556008549051339130917f36ef39b15ae87208645c010139b1c8b7b25a358bb68989fefcc82b1e0754bcbd90610c09908c908b906120ca565b60405180910390a450505050505050565b60186020526000908152604090208054600182018054919291610c3c90611f05565b80601f0160208091040260200160405190810160405280929190818152602001828054610c6890611f05565b8015610cb55780601f10610c8a57610100808354040283529160200191610cb5565b820191906000526020600020905b815481529060010190602001808311610c9857829003601f168201915b505050505090806002018054610cca90611f05565b80601f0160208091040260200160405190810160405280929190818152602001828054610cf690611f05565b8015610d435780601f10610d1857610100808354040283529160200191610d43565b820191906000526020600020905b815481529060010190602001808311610d2657829003601f168201915b5050505050905083565b610d55611a11565b600a8054906000610d6583611fa3565b909155505060408051606081018252600a54808252602080830186815283850186905260009283526018909152929020815181559151909182916001820190610dae908261200b565b5060408201516002820190610dc3908261200b565b505050505050565b60116020526000908152604090208054600182018054919291610ded90611f05565b80601f0160208091040260200160405190810160405280929190818152602001828054610e1990611f05565b8015610e665780601f10610e3b57610100808354040283529160200191610e66565b820191906000526020600020905b815481529060010190602001808311610e4957829003601f168201915b505050600284015460038501546004860154600587015460069097015495969295919450925060ff1687565b6000805b600083815260126020526040902054811015610eef576000838152601260205260409020805482908110610ecc57610ecc6120ec565b90600052602060002001548403610ee7576001915050610ef5565b600101610e96565b50600090505b92915050565b610f03611a11565b610f0d6000611a3e565b565b6006805461081790611f05565b60126020528160005260406000208181548110610f3857600080fd5b90600052602060002001600091509150505481565b600f602052600090815260409020805461081790611f05565b610f6e611a11565b600e805460ff19169055565b6007805461081790611f05565b610f8f611a11565b6000818152601160205260409020600501544211610fe25760405162461bcd60e51b815260206004820152601060248201526f159bdd1a5b99c81b9bdd08195b99195960821b60448201526064016108ea565b60008181526017602052604090205460ff16156110415760405162461bcd60e51b815260206004820152601960248201527f526573756c7420616c72656164792063616c63756c617465640000000000000060448201526064016108ea565b600081815260136020908152604080832054601490925282205490918183111561108757506000838152601660205260409020805460ff1916600190811790915561109f565b506000838152601660205260408120805460ff191690555b60008481526017602052604090819020805460ff191660011790555184907f238e6e88ec0ed597892e27040eff9b1bfc596838b3dc2d2c016e2b3a9c4bf658906110ee90841515815260200190565b60405180910390a28015156001036112e7576000601160008681526020019081526020016000206040518060e00160405290816000820154815260200160018201805461113a90611f05565b80601f016020809104026020016040519081016040528092919081815260200182805461116690611f05565b80156111b35780601f10611188576101008083540402835291602001916111b3565b820191906000526020600020905b81548152906001019060200180831161119657829003601f168201915b5050509183525050600282015460208201526003820154604082015260048201546060808301919091526005830154608083015260069092015460ff16151560a09091015281015190915047101561125d5760405162461bcd60e51b815260206004820152602760248201527f50726f706f73616c206661696c6564206f7220696e73756666696369656e742060448201526662616c616e636560c81b60648201526084016108ea565b6060810151604051339180156108fc02916000818181858888f1935050505015801561128d573d6000803e3d6000fd5b508060600151600b60008282546112a49190611f4f565b90915550506060810151604051908152339086907ff3b5906e5672f3e524854103bcafbbdba80dbdfeca2c35e116127b1060a683189060200160405180910390a3505b50505050565b6112f5611a11565b600c5460ff161561133e5760405162461bcd60e51b8152602060048201526013602482015272111053c8185b1c9958591e4818dc99585d1959606a1b60448201526064016108ea565b600761134a828261200b565b506006611357838261200b565b50600c805460ff191660011790556040516000908690869061137890611ae7565b611383929190612102565b604051809103906000f08015801561139f573d6000803e3d6000fd5b506005859055600480546001600160a01b0319166001600160a01b03831617905560028054919250610dc3916113d490611f05565b80601f016020809104026020016040519081016040528092919081815260200182805461140090611f05565b801561144d5780601f106114225761010080835404028352916020019161144d565b820191906000526020600020905b81548152906001019060200180831161143057829003601f168201915b50505050507f00000000000000000000000000000000000000000000000000000000000000006118fc565b611480611a11565b6001600160a01b0381166114aa57604051631e4fbdf760e01b8152600060048201526024016108ea565b6114b381611a3e565b50565b336000818152601060205260409020546115055760405162461bcd60e51b815260206004820152601060248201526f2737ba1030902220a79036b2b6b132b960811b60448201526064016108ea565b6001600160a01b03811660009081526010602090815260408083205487845260119092529091206006015460ff16156115a2576115428186610e92565b15801561156657506001600160a01b03821660009081526010602052604090205415155b6115a25760405162461bcd60e51b815260206004820152600d60248201526c105b1c9958591e481d9bdd1959609a1b60448201526064016108ea565b600480546040516370a0823160e01b81526001600160a01b0385811693820193909352911690859082906370a0823190602401602060405180830381865afa1580156115f2573d6000803e3d6000fd5b505050506040513d601f19601f820116820180604052508101906116169190612130565b101561165a5760405162461bcd60e51b8152602060048201526013602482015272496e73756666696369656e7420746f6b656e7360681b60448201526064016108ea565b6000868152601160205260409020600201548511156116ab5760405162461bcd60e51b815260206004820152600d60248201526c45786365737320746f6b656e7360981b60448201526064016108ea565b60008681526011602052604090206004015442108015906116dc575060008681526011602052604090206005015442105b61171d5760405162461bcd60e51b8152602060048201526012602482015271566f74696e6720756e617661696c61626c6560701b60448201526064016108ea565b600061172886611a8e565b90506001600160a01b0382166323b872dd333061174d8a670de0b6b3a7640000612149565b6040516001600160e01b031960e086901b1681526001600160a01b03938416600482015292909116602483015260448201526064016020604051808303816000875af11580156117a1573d6000803e3d6000fd5b505050506040513d601f19601f820116820180604052508101906117c59190612160565b5084156117f557600087815260136020526040812080548392906117ea908490611f4f565b909155506118199050565b60008781526014602052604081208054839290611813908490611f4f565b90915550505b604080518481526020810183905286151581830152905188917f9e57ad86afa392f77963ff69647d8172f5b28565bf3c7520591acfc8ea579118919081900360600190a25050600094855260126020908152604086208054600181018255908752952090940193909355505050565b600480546040516370a0823160e01b81526001600160a01b0384811693820193909352600092909116906370a0823190602401602060405180830381865afa1580156118d8573d6000803e3d6000fd5b505050506040513d601f19601f82011682018060405250810190610ef59190612130565b6009805490600061190c83611fa3565b90915550506009546000908152600f6020526040902061192c838261200b565b506009546001600160a01b03828116600081815260106020526040908190209390935560048054600554945163bec3fa1760e01b8152918201929092526024810193909352169063bec3fa1790604401600060405180830381600087803b15801561199657600080fd5b505af11580156119aa573d6000803e3d6000fd5b5050600954604080519182526001600160a01b03851660208301527f000000000000000000000000000000000000000000000000000000000000000093507f91d8f88e2103e9fbf7b05234db8db9719fbb001942620d75ccb0fe36cc3d4e7e925001610a1f565b6000546001600160a01b03163314610f0d5760405163118cdaa760e01b81523360048201526024016108ea565b600080546001600160a01b038381166001600160a01b0319831681178455604051919092169283917f8be0079c531659141344cd1fd0a4f28419497f9722a3daafe3b4186f6b6457e09190a35050565b6000806002611a9e846001611f4f565b611aa8919061217d565b90508291505b81811015611ae157905080600281611ac6818661217d565b611ad09190611f4f565b611ada919061217d565b9050611aae565b50919050565b610c8c806121a083390190565b6000815180845260005b81811015611b1a57602081850181015186830182015201611afe565b506000602082860101526020601f19601f83011685010191505092915050565b602081526000611b4d6020830184611af4565b9392505050565b634e487b7160e01b600052604160045260246000fd5b600082601f830112611b7b57600080fd5b813567ffffffffffffffff811115611b9557611b95611b54565b604051601f8201601f19908116603f0116810167ffffffffffffffff81118282101715611bc457611bc4611b54565b604052818152838201602001851015611bdc57600080fd5b816020850160208301376000918101602001919091529392505050565b600060208284031215611c0b57600080fd5b813567ffffffffffffffff811115611c2257600080fd5b611c2e84828501611b6a565b949350505050565b600060208284031215611c4857600080fd5b5035919050565b80151581146114b357600080fd5b60008060008060008060c08789031215611c7657600080fd5b863567ffffffffffffffff811115611c8d57600080fd5b611c9989828a01611b6a565b9650506020870135945060408701359350606087013592506080870135915060a0870135611cc681611c4f565b809150509295509295509295565b838152606060208201526000611ced6060830185611af4565b8281036040840152611cff8185611af4565b9695505050505050565b600060208284031215611d1b57600080fd5b81356001600160a01b0381168114611b4d57600080fd5b60008060408385031215611d4557600080fd5b823567ffffffffffffffff811115611d5c57600080fd5b611d6885828601611b6a565b925050602083013567ffffffffffffffff811115611d8557600080fd5b611d9185828601611b6a565b9150509250929050565b87815260e060208201526000611db460e0830189611af4565b6040830197909752506060810194909452608084019290925260a0830152151560c09091015292915050565b60008060408385031215611df357600080fd5b50508035926020909101359150565b600080600080600060a08688031215611e1a57600080fd5b853567ffffffffffffffff811115611e3157600080fd5b611e3d88828901611b6a565b955050602086013567ffffffffffffffff811115611e5a57600080fd5b611e6688828901611b6a565b94505060408601359250606086013567ffffffffffffffff811115611e8a57600080fd5b611e9688828901611b6a565b925050608086013567ffffffffffffffff811115611eb357600080fd5b611ebf88828901611b6a565b9150509295509295909350565b600080600060608486031215611ee157600080fd5b83359250602084013591506040840135611efa81611c4f565b809150509250925092565b600181811c90821680611f1957607f821691505b602082108103611ae157634e487b7160e01b600052602260045260246000fd5b634e487b7160e01b600052601160045260246000fd5b80820180821115610ef557610ef5611f39565b606081526000611f756060830186611af4565b6001600160a01b039490941660208301525060400152919050565b81810381811115610ef557610ef5611f39565b600060018201611fb557611fb5611f39565b5060010190565b601f82111561200657806000526020600020601f840160051c81016020851015611fe35750805b601f840160051c820191505b818110156120035760008155600101611fef565b50505b505050565b815167ffffffffffffffff81111561202557612025611b54565b612039816120338454611f05565b84611fbc565b6020601f82116001811461206d57600083156120555750848201515b600019600385901b1c1916600184901b178455612003565b600084815260208120601f198516915b8281101561209d578785015182556020948501946001909201910161207d565b50848210156120bb5786840151600019600387901b60f8161c191681555b50505050600190811b01905550565b6040815260006120dd6040830185611af4565b90508260208301529392505050565b634e487b7160e01b600052603260045260246000fd5b6040815260006121156040830185611af4565b82810360208401526121278185611af4565b95945050505050565b60006020828403121561214257600080fd5b5051919050565b8082028115828204841417610ef557610ef5611f39565b60006020828403121561217257600080fd5b8151611b4d81611c4f565b60008261219a57634e487b7160e01b600052601260045260246000fd5b50049056fe60a060405234801561001057600080fd5b50604051610c8c380380610c8c83398101604081905261002f91610112565b8181600361003d8382610204565b50600461004a8282610204565b505033608052506102c2915050565b634e487b7160e01b600052604160045260246000fd5b600082601f83011261008057600080fd5b81516001600160401b0381111561009957610099610059565b604051601f8201601f19908116603f011681016001600160401b03811182821017156100c7576100c7610059565b6040528181528382016020018510156100df57600080fd5b60005b828110156100fe576020818601810151838301820152016100e2565b506000918101602001919091529392505050565b6000806040838503121561012557600080fd5b82516001600160401b0381111561013b57600080fd5b6101478582860161006f565b602085015190935090506001600160401b0381111561016557600080fd5b6101718582860161006f565b9150509250929050565b600181811c9082168061018f57607f821691505b6020821081036101af57634e487b7160e01b600052602260045260246000fd5b50919050565b601f8211156101ff57806000526020600020601f840160051c810160208510156101dc5750805b601f840160051c820191505b818110156101fc57600081556001016101e8565b50505b505050565b81516001600160401b0381111561021d5761021d610059565b6102318161022b845461017b565b846101b5565b6020601f821160018114610265576000831561024d5750848201515b600019600385901b1c1916600184901b1784556101fc565b600084815260208120601f198516915b828110156102955787850151825560209485019460019092019101610275565b50848210156102b35786840151600019600387901b60f8161c191681555b50505050600190811b01905550565b6080516109a16102eb60003960008181610128015281816102ec015261035301526109a16000f3fe608060405234801561001057600080fd5b50600436106100a95760003560e01c80633cf96af1116100715780633cf96af11461012357806370a082311461016257806395d89b411461018b578063a9059cbb14610193578063bec3fa17146101a6578063dd62ed3e146101bb57600080fd5b806306fdde03146100ae578063095ea7b3146100cc57806318160ddd146100ef57806323b872dd14610101578063313ce56714610114575b600080fd5b6100b66101f4565b6040516100c391906106d5565b60405180910390f35b6100df6100da36600461073f565b610286565b60405190151581526020016100c3565b6002545b6040519081526020016100c3565b6100df61010f366004610769565b6102a0565b604051601281526020016100c3565b61014a7f000000000000000000000000000000000000000000000000000000000000000081565b6040516001600160a01b0390911681526020016100c3565b6100f36101703660046107a6565b6001600160a01b031660009081526020819052604090205490565b6100b66102c4565b6100df6101a136600461073f565b6102d3565b6101b96101b436600461073f565b6102e1565b005b6100f36101c93660046107c8565b6001600160a01b03918216600090815260016020908152604080832093909416825291909152205490565b606060038054610203906107fb565b80601f016020809104026020016040519081016040528092919081815260200182805461022f906107fb565b801561027c5780601f106102515761010080835404028352916020019161027c565b820191906000526020600020905b81548152906001019060200180831161025f57829003601f168201915b5050505050905090565b6000336102948185856103b0565b60019150505b92915050565b6000336102ae8582856103c2565b6102b9858585610441565b506001949350505050565b606060048054610203906107fb565b600033610294818585610441565b336001600160a01b037f0000000000000000000000000000000000000000000000000000000000000000161461034d5760405162461bcd60e51b815260206004820152600c60248201526b1bdb9b1e481c1c9bda9958dd60a21b60448201526064015b60405180910390fd5b61038d827f000000000000000000000000000000000000000000000000000000000000000061037e6012600a610932565b6103889085610941565b6103b0565b6103ac8261039d6012600a610932565b6103a79084610941565b6104a0565b5050565b6103bd83838360016104d6565b505050565b6001600160a01b0383811660009081526001602090815260408083209386168352929052205460001981101561043b578181101561042c57604051637dc7a0d960e11b81526001600160a01b03841660048201526024810182905260448101839052606401610344565b61043b848484840360006104d6565b50505050565b6001600160a01b03831661046b57604051634b637e8f60e11b815260006004820152602401610344565b6001600160a01b0382166104955760405163ec442f0560e01b815260006004820152602401610344565b6103bd8383836105ab565b6001600160a01b0382166104ca5760405163ec442f0560e01b815260006004820152602401610344565b6103ac600083836105ab565b6001600160a01b0384166105005760405163e602df0560e01b815260006004820152602401610344565b6001600160a01b03831661052a57604051634a1406b160e11b815260006004820152602401610344565b6001600160a01b038085166000908152600160209081526040808320938716835292905220829055801561043b57826001600160a01b0316846001600160a01b03167f8c5be1e5ebec7d5bd14f71427d1e84f3dd0314c0f7b2291e5b200ac8c7c3b9258460405161059d91815260200190565b60405180910390a350505050565b6001600160a01b0383166105d65780600260008282546105cb9190610958565b909155506106489050565b6001600160a01b038316600090815260208190526040902054818110156106295760405163391434e360e21b81526001600160a01b03851660048201526024810182905260448101839052606401610344565b6001600160a01b03841660009081526020819052604090209082900390555b6001600160a01b03821661066457600280548290039055610683565b6001600160a01b03821660009081526020819052604090208054820190555b816001600160a01b0316836001600160a01b03167fddf252ad1be2c89b69c2b068fc378daa952ba7f163c4a11628f55a4df523b3ef836040516106c891815260200190565b60405180910390a3505050565b602081526000825180602084015260005b8181101561070357602081860181015160408684010152016106e6565b506000604082850101526040601f19601f83011684010191505092915050565b80356001600160a01b038116811461073a57600080fd5b919050565b6000806040838503121561075257600080fd5b61075b83610723565b946020939093013593505050565b60008060006060848603121561077e57600080fd5b61078784610723565b925061079560208501610723565b929592945050506040919091013590565b6000602082840312156107b857600080fd5b6107c182610723565b9392505050565b600080604083850312156107db57600080fd5b6107e483610723565b91506107f260208401610723565b90509250929050565b600181811c9082168061080f57607f821691505b60208210810361082f57634e487b7160e01b600052602260045260246000fd5b50919050565b634e487b7160e01b600052601160045260246000fd5b6001815b60018411156108865780850481111561086a5761086a610835565b600184161561087857908102905b60019390931c92800261084f565b935093915050565b60008261089d5750600161029a565b816108aa5750600061029a565b81600181146108c057600281146108ca576108e6565b600191505061029a565b60ff8411156108db576108db610835565b50506001821b61029a565b5060208310610133831016604e8410600b8410161715610909575081810a61029a565b610916600019848461084b565b806000190482111561092a5761092a610835565b029392505050565b60006107c160ff84168361088e565b808202811582820484141761029a5761029a610835565b8082018082111561029a5761029a61083556fea26469706673582212201d5ae787ffa3a45908360abf4b751e36935652e8300fab1bacd0183ea79c41f464736f6c634300081c0033a26469706673582212202257cbe85337f5d89153009535dffd575acb48b5d6abaa86b6e98a0987aeff5664736f6c634300081c0033a264697066735822122042f07996dc9de877f0a6f52c79b5405e5103d7331b403da31225f16361e36b9564736f6c634300081c0033",
  "linkReferences": {},
  "deployedLinkReferences": {}
}