{
  "_format": "hh-sol-artifact-1",
  "contractName": "ProjectFactory",
  "sourceName": "contracts/ProjectFactory.sol",
  "abi": [
    {
      "anonymous": false,
      "inputs": [
        {
          "indexed": true,
          "internalType": "uint256",
          "name": "projectId",
          "type": "uint256"
        },
        {
          "indexed": true,
          "internalType": "address",
          "name": "owner",
          "type": "address"
        }
      ],
      "name": "ProjectCreated",
      "type": "event"
    },
    {
      "inputs": [
        {
          "internalType": "string",
          "name": "_name",
          "type": "string"
        },
        {
          "internalType": "string",
          "name": "_founderName",
          "type": "string"
        },
        {
          "internalType": "uint256",
          "name": "_budget",
          "type": "uint256"
        },
        {
          "internalType": "uint256",
          "name": "_duration",
          "type": "uint256"
        },
        {
          "internalType": "uint256",
          "name": "_proposalLimit",
          "type": "uint256"
        },
        {
          "internalType": "uint256",
          "name": "_investmentLimit",
          "type": "uint256"
        }
      ],
      "name": "createProject",
      "outputs": [],
      "stateMutability": "nonpayable",
      "type": "function"
    },
    {
      "inputs": [],
      "name": "getNumberOfProjects",
      "outputs": [
        {
          "internalType": "uint256",
          "name": "",
          "type": "uint256"
        }
      ],
      "stateMutability": "view",
      "type": "function"
    },
    {
      "inputs": [
        {
          "internalType": "uint256",
          "name": "",
          "type": "uint256"
        }
      ],
      "name": "projectIdToAddress",
      "outputs": [
        {
          "internalType": "address",
          "name": "",
          "type": "address"
        }
      ],
      "stateMutability": "view",
      "type": "function"
    },
    {
      "inputs": [
        {
          "internalType": "string",
          "name": "",
          "type": "string"
        }
      ],
      "name": "projectNametoprojectId",
      "outputs": [
        {
          "internalType": "uint256",
          "name": "",
          "type": "uint256"
        }
      ],
      "stateMutability": "view",
      "type": "function"
    }
  ],
  "bytecode": "0x608060405260008055348015601357600080fd5b50613793806100236000396000f3fe608060405234801561001057600080fd5b506004361061004c5760003560e01c806304c956bf1461005157806319ba0b63146100665780632ad968d71461007d578063303199db146100a8575b600080fd5b61006461005f36600461034c565b6100e9565b005b6000545b6040519081526020015b60405180910390f35b61006a61008b3660046103d8565b805160208183018101805160028252928201919093012091525481565b6100d16100b6366004610415565b6001602052600090815260409020546001600160a01b031681565b6040516001600160a01b039091168152602001610074565b6002866040516100f99190610452565b90815260200160405180910390205460001461015c5760405162461bcd60e51b815260206004820152601d60248201527f50726f6a65637420776974682074686973206e616d652065786973747300000060448201526064015b60405180910390fd5b838110801561016a57508382105b6101b65760405162461bcd60e51b815260206004820181905260248201527f4c696d69747320657863656564207468652070726f6a656374206275646765746044820152606401610153565b6000805490806101c58361046e565b919050555060008054878733888888886040516101e19061029a565b6101f29897969594939291906104c1565b604051809103906000f08015801561020e573d6000803e3d6000fd5b5060008054604051929350339290917f63c92f9505d420bff631cb9df33be952bdc11e2118da36a850b43e6bcc4ce4de91a36000546002886040516102539190610452565b90815260408051602092819003830190209290925560008054815260019091522080546001600160a01b0319166001600160a01b0392909216919091179055505050505050565b61323a8061052483390190565b634e487b7160e01b600052604160045260246000fd5b600082601f8301126102ce57600080fd5b813567ffffffffffffffff8111156102e8576102e86102a7565b604051601f8201601f19908116603f0116810167ffffffffffffffff81118282101715610317576103176102a7565b60405281815283820160200185101561032f57600080fd5b816020850160208301376000918101602001919091529392505050565b60008060008060008060c0878903121561036557600080fd5b863567ffffffffffffffff81111561037c57600080fd5b61038889828a016102bd565b965050602087013567ffffffffffffffff8111156103a557600080fd5b6103b189828a016102bd565b96999698505050506040850135946060810135946080820135945060a09091013592509050565b6000602082840312156103ea57600080fd5b813567ffffffffffffffff81111561040157600080fd5b61040d848285016102bd565b949350505050565b60006020828403121561042757600080fd5b5035919050565b60005b83811015610449578181015183820152602001610431565b50506000910152565b6000825161046481846020870161042e565b9190910192915050565b60006001820161048e57634e487b7160e01b600052601160045260246000fd5b5060010190565b600081518084526104ad81602086016020860161042e565b601f01601f19169290920160200192915050565b888152610100602082015260006104dc61010083018a610495565b82810360408401526104ee818a610495565b6001600160a01b039890981660608401525050608081019490945260a084019290925260c083015260e090910152939250505056fe610140604052600060088190556009819055600a819055600b819055600c805460ff19908116909155600d91909155600e8054909116600117905534801561004657600080fd5b5060405161323a38038061323a833981016040819052610065916101f7565b846001600160a01b03811661009457604051631e4fbdf760e01b81526000600482015260240160405180910390fd5b61009d816100ee565b50608088905260016100af888261033b565b5060026100bc878261033b565b506001600160a01b0390941660a05260c0929092526101009190915260e09190915261012052505042600d55506103f9565b600080546001600160a01b038381166001600160a01b0319831681178455604051919092169283917f8be0079c531659141344cd1fd0a4f28419497f9722a3daafe3b4186f6b6457e09190a35050565b634e487b7160e01b600052604160045260246000fd5b600082601f83011261016557600080fd5b81516001600160401b0381111561017e5761017e61013e565b604051601f8201601f19908116603f011681016001600160401b03811182821017156101ac576101ac61013e565b6040528181528382016020018510156101c457600080fd5b60005b828110156101e3576020818601810151838301820152016101c7565b506000918101602001919091529392505050565b600080600080600080600080610100898b03121561021457600080fd5b885160208a01519098506001600160401b0381111561023257600080fd5b61023e8b828c01610154565b60408b015190985090506001600160401b0381111561025c57600080fd5b6102688b828c01610154565b60608b015190975090506001600160a01b038116811461028757600080fd5b60808a015160a08b015160c08c015160e0909c01519a9d999c50979a91999098919650945092505050565b600181811c908216806102c657607f821691505b6020821081036102e657634e487b7160e01b600052602260045260246000fd5b50919050565b601f82111561033657806000526020600020601f840160051c810160208510156103135750805b601f840160051c820191505b81811015610333576000815560010161031f565b50505b505050565b81516001600160401b038111156103545761035461013e565b6103688161036284546102b2565b846102ec565b6020601f82116001811461039c57600083156103845750848201515b600019600385901b1c1916600184901b178455610333565b600084815260208120601f198516915b828110156103cc57878501518255602094850194600190920191016103ac565b50848210156103ea5786840151600019600387901b60f8161c191681555b50505050600190811b01905550565b60805160a05160c05160e0516101005161012051612dd261046860003960005050600081816102f501526109b8015260008181610595015261086601526000818161068e0152610a010152600081816103c501526113c501526000818161056101526119380152612dd26000f3fe6080604052600436106102255760003560e01c806397281f6a11610123578063e1604b70116100ab578063f264c5ab1161006f578063f264c5ab146106e5578063f2fde38b14610705578063f9000ba814610725578063fb627a9a14610745578063fc2917751461076557600080fd5b8063e1604b7014610651578063ec8a3cff14610667578063ed01bf291461067c578063ef430aa6146106b0578063f0c53996146106c557600080fd5b8063ba7efcdd116100f2578063ba7efcdd14610583578063c228995d146105b7578063ca7fad05146105d7578063cd585b3714610604578063cf44b2ef1461062457600080fd5b806397281f6a146104dc578063a78d80fc1461050c578063abe7095114610522578063af640d0f1461054f57600080fd5b80634d2b1978116101b15780636a29150e116101755780636a29150e14610468578063715018a61461047e5780637284e4161461049357806378e97925146104a85780638da5cb5b146104be57600080fd5b80634d2b1978146103935780634d853ee5146103b3578063553181ec146103ff57806356a58ebf1461041557806364390ff11461044857600080fd5b80632202ab69116101f85780632202ab69146102bf57806324e8ff4b146102e35780633626bc61146103175780633bd8e51e146103375780634cc3c7121461036657600080fd5b806304b43ca61461022a57806306fdde03146102555780630a8b78261461026a5780631976f4a71461027f575b600080fd5b34801561023657600080fd5b5061023f61077b565b60405161024c9190611aab565b60405180910390f35b34801561026157600080fd5b5061023f610809565b61027d610278366004611b6a565b610816565b005b34801561028b57600080fd5b506102af61029a366004611ba7565b60166020526000908152604090205460ff1681565b604051901515815260200161024c565b3480156102cb57600080fd5b506102d560055481565b60405190815260200161024c565b3480156102ef57600080fd5b506102d57f000000000000000000000000000000000000000000000000000000000000000081565b34801561032357600080fd5b5061027d610332366004611bce565b61099c565b34801561034357600080fd5b50610357610352366004611ba7565b610b8b565b60405161024c93929190611c45565b34801561037257600080fd5b506102d5610381366004611c7a565b60156020526000908152604090205481565b34801561039f57600080fd5b5061027d6103ae366004611ca3565b610cbe565b3480156103bf57600080fd5b506103e77f000000000000000000000000000000000000000000000000000000000000000081565b6040516001600160a01b03909116815260200161024c565b34801561040b57600080fd5b506102d5600a5481565b34801561042157600080fd5b50610435610430366004611ba7565b610d3c565b60405161024c9796959493929190611d0c565b34801561045457600080fd5b506102af610463366004611d51565b610e03565b34801561047457600080fd5b506102d5600b5481565b34801561048a57600080fd5b5061027d610e6c565b34801561049f57600080fd5b5061023f610e80565b3480156104b457600080fd5b506102d5600d5481565b3480156104ca57600080fd5b506000546001600160a01b03166103e7565b3480156104e857600080fd5b506102af6104f7366004611ba7565b60176020526000908152604090205460ff1681565b34801561051857600080fd5b506102d560085481565b34801561052e57600080fd5b506102d561053d366004611c7a565b60106020526000908152604090205481565b34801561055b57600080fd5b506102d57f000000000000000000000000000000000000000000000000000000000000000081565b34801561058f57600080fd5b506102d57f000000000000000000000000000000000000000000000000000000000000000081565b3480156105c357600080fd5b506102d56105d2366004611d51565b610e8d565b3480156105e357600080fd5b506102d56105f2366004611ba7565b60146020526000908152604090205481565b34801561061057600080fd5b5061023f61061f366004611ba7565b610ebe565b34801561063057600080fd5b506102d561063f366004611ba7565b60136020526000908152604090205481565b34801561065d57600080fd5b506102d560095481565b34801561067357600080fd5b5061027d610ed7565b34801561068857600080fd5b506102d57f000000000000000000000000000000000000000000000000000000000000000081565b3480156106bc57600080fd5b5061023f610eeb565b3480156106d157600080fd5b5061027d6106e0366004611ba7565b610ef8565b3480156106f157600080fd5b5061027d610700366004611d73565b61125e565b34801561071157600080fd5b5061027d610720366004611c7a565b6113e9565b34801561073157600080fd5b5061027d610740366004611e3d565b611427565b34801561075157600080fd5b506102d5610760366004611c7a565b6117f9565b34801561077157600080fd5b506102d560035481565b6002805461078890611e76565b80601f01602080910402602001604051908101604052809291908181526020018280546107b490611e76565b80156108015780601f106107d657610100808354040283529160200191610801565b820191906000526020600020905b8154815290600101906020018083116107e457829003601f168201915b505050505081565b6001805461078890611e76565b600c5460ff1615156001146108645760405162461bcd60e51b815260206004820152600f60248201526e11185bc81b9bdd0818dc99585d1959608a1b60448201526064015b60405180910390fd5b7f00000000000000000000000000000000000000000000000000000000000000003410156108d45760405162461bcd60e51b815260206004820152601960248201527f4d6565742074686520696e766573746d656e74206c696d697400000000000000604482015260640161085b565b336000818152601560205260409020541561091c576001600160a01b03811660009081526015602052604081208054349290610911908490611ec0565b909155506109429050565b610926828261186d565b6001600160a01b03811660009081526015602052604090203490555b34600360008282546109549190611ec0565b90915550506009546040517f5909eeae9d21e6fa8ac76ff35662ef4bf97b31cef31b127f4195177e1e2b8a839061099090859085903490611ed3565b60405180910390a25050565b6109a4611982565b600c5460ff16151560011480156109dd57507f000000000000000000000000000000000000000000000000000000000000000060035410155b80156109f8575083600b546003546109f59190611f01565b10155b8015610a2457507f00000000000000000000000000000000000000000000000000000000000000008411155b610a705760405162461bcd60e51b815260206004820152601860248201527f52656163682050726f706f73616c20436f6e646974696f6e0000000000000000604482015260640161085b565b60088054906000610a8083611f14565b919050555060006040518060e0016040528060085481526020018881526020018781526020018681526020014286610ab89190611ec0565b8152602001610ac74286611ec0565b815283151560209182015260085460009081526011825260409020825181559082015191925082916001820190610afe9082611f7c565b506040828101516002830155606083015160038301556080830151600483015560a0830151600583015560c0909201516006909101805460ff19169115159190911790556008549051339130917f36ef39b15ae87208645c010139b1c8b7b25a358bb68989fefcc82b1e0754bcbd90610b7a908c908b9061203b565b60405180910390a450505050505050565b60186020526000908152604090208054600182018054919291610bad90611e76565b80601f0160208091040260200160405190810160405280929190818152602001828054610bd990611e76565b8015610c265780601f10610bfb57610100808354040283529160200191610c26565b820191906000526020600020905b815481529060010190602001808311610c0957829003601f168201915b505050505090806002018054610c3b90611e76565b80601f0160208091040260200160405190810160405280929190818152602001828054610c6790611e76565b8015610cb45780601f10610c8957610100808354040283529160200191610cb4565b820191906000526020600020905b815481529060010190602001808311610c9757829003601f168201915b5050505050905083565b610cc6611982565b600a8054906000610cd683611f14565b909155505060408051606081018252600a54808252602080830186815283850186905260009283526018909152929020815181559151909182916001820190610d1f9082611f7c565b5060408201516002820190610d349082611f7c565b505050505050565b60116020526000908152604090208054600182018054919291610d5e90611e76565b80601f0160208091040260200160405190810160405280929190818152602001828054610d8a90611e76565b8015610dd75780601f10610dac57610100808354040283529160200191610dd7565b820191906000526020600020905b815481529060010190602001808311610dba57829003601f168201915b505050600284015460038501546004860154600587015460069097015495969295919450925060ff1687565b6000805b600083815260126020526040902054811015610e60576000838152601260205260409020805482908110610e3d57610e3d61205d565b90600052602060002001548403610e58576001915050610e66565b600101610e07565b50600090505b92915050565b610e74611982565b610e7e60006119af565b565b6006805461078890611e76565b60126020528160005260406000208181548110610ea957600080fd5b90600052602060002001600091509150505481565b600f602052600090815260409020805461078890611e76565b610edf611982565b600e805460ff19169055565b6007805461078890611e76565b610f00611982565b6000818152601160205260409020600501544211610f535760405162461bcd60e51b815260206004820152601060248201526f159bdd1a5b99c81b9bdd08195b99195960821b604482015260640161085b565b60008181526017602052604090205460ff1615610fb25760405162461bcd60e51b815260206004820152601960248201527f526573756c7420616c72656164792063616c63756c6174656400000000000000604482015260640161085b565b6000818152601360209081526040808320546014909252822054909181831115610ff857506000838152601660205260409020805460ff19166001908117909155611010565b506000838152601660205260408120805460ff191690555b60008481526017602052604090819020805460ff191660011790555184907f238e6e88ec0ed597892e27040eff9b1bfc596838b3dc2d2c016e2b3a9c4bf6589061105f90841515815260200190565b60405180910390a2801515600103611258576000601160008681526020019081526020016000206040518060e0016040529081600082015481526020016001820180546110ab90611e76565b80601f01602080910402602001604051908101604052809291908181526020018280546110d790611e76565b80156111245780601f106110f957610100808354040283529160200191611124565b820191906000526020600020905b81548152906001019060200180831161110757829003601f168201915b5050509183525050600282015460208201526003820154604082015260048201546060808301919091526005830154608083015260069092015460ff16151560a0909101528101519091504710156111ce5760405162461bcd60e51b815260206004820152602760248201527f50726f706f73616c206661696c6564206f7220696e73756666696369656e742060448201526662616c616e636560c81b606482015260840161085b565b6060810151604051339180156108fc02916000818181858888f193505050501580156111fe573d6000803e3d6000fd5b508060600151600b60008282546112159190611ec0565b90915550506060810151604051908152339086907ff3b5906e5672f3e524854103bcafbbdba80dbdfeca2c35e116127b1060a683189060200160405180910390a3505b50505050565b611266611982565b600c5460ff16156112af5760405162461bcd60e51b8152602060048201526013602482015272111053c8185b1c9958591e4818dc99585d1959606a1b604482015260640161085b565b60076112bb8282611f7c565b5060066112c88382611f7c565b50600c805460ff19166001179055604051600090869086906112e990611a58565b6112f4929190612073565b604051809103906000f080158015611310573d6000803e3d6000fd5b506005859055600480546001600160a01b0319166001600160a01b03831617905560028054919250610d349161134590611e76565b80601f016020809104026020016040519081016040528092919081815260200182805461137190611e76565b80156113be5780601f10611393576101008083540402835291602001916113be565b820191906000526020600020905b8154815290600101906020018083116113a157829003601f168201915b50505050507f000000000000000000000000000000000000000000000000000000000000000061186d565b6113f1611982565b6001600160a01b03811661141b57604051631e4fbdf760e01b81526000600482015260240161085b565b611424816119af565b50565b336000818152601060205260409020546114765760405162461bcd60e51b815260206004820152601060248201526f2737ba1030902220a79036b2b6b132b960811b604482015260640161085b565b6001600160a01b03811660009081526010602090815260408083205487845260119092529091206006015460ff1615611513576114b38186610e03565b1580156114d757506001600160a01b03821660009081526010602052604090205415155b6115135760405162461bcd60e51b815260206004820152600d60248201526c105b1c9958591e481d9bdd1959609a1b604482015260640161085b565b600480546040516370a0823160e01b81526001600160a01b0385811693820193909352911690859082906370a0823190602401602060405180830381865afa158015611563573d6000803e3d6000fd5b505050506040513d601f19601f8201168201806040525081019061158791906120a1565b10156115cb5760405162461bcd60e51b8152602060048201526013602482015272496e73756666696369656e7420746f6b656e7360681b604482015260640161085b565b60008681526011602052604090206002015485111561161c5760405162461bcd60e51b815260206004820152600d60248201526c45786365737320746f6b656e7360981b604482015260640161085b565b600086815260116020526040902060040154421080159061164d575060008681526011602052604090206005015442105b61168e5760405162461bcd60e51b8152602060048201526012602482015271566f74696e6720756e617661696c61626c6560701b604482015260640161085b565b6000611699866119ff565b90506001600160a01b0382166323b872dd33306116be8a670de0b6b3a76400006120ba565b6040516001600160e01b031960e086901b1681526001600160a01b03938416600482015292909116602483015260448201526064016020604051808303816000875af1158015611712573d6000803e3d6000fd5b505050506040513d601f19601f8201168201806040525081019061173691906120d1565b508415611766576000878152601360205260408120805483929061175b908490611ec0565b9091555061178a9050565b60008781526014602052604081208054839290611784908490611ec0565b90915550505b604080518481526020810183905286151581830152905188917f9e57ad86afa392f77963ff69647d8172f5b28565bf3c7520591acfc8ea579118919081900360600190a25050600094855260126020908152604086208054600181018255908752952090940193909355505050565b600480546040516370a0823160e01b81526001600160a01b0384811693820193909352600092909116906370a0823190602401602060405180830381865afa158015611849573d6000803e3d6000fd5b505050506040513d601f19601f82011682018060405250810190610e6691906120a1565b6009805490600061187d83611f14565b90915550506009546000908152600f6020526040902061189d8382611f7c565b506009546001600160a01b03828116600081815260106020526040908190209390935560048054600554945163bec3fa1760e01b8152918201929092526024810193909352169063bec3fa1790604401600060405180830381600087803b15801561190757600080fd5b505af115801561191b573d6000803e3d6000fd5b5050600954604080519182526001600160a01b03851660208301527f000000000000000000000000000000000000000000000000000000000000000093507f91d8f88e2103e9fbf7b05234db8db9719fbb001942620d75ccb0fe36cc3d4e7e925001610990565b6000546001600160a01b03163314610e7e5760405163118cdaa760e01b815233600482015260240161085b565b600080546001600160a01b038381166001600160a01b0319831681178455604051919092169283917f8be0079c531659141344cd1fd0a4f28419497f9722a3daafe3b4186f6b6457e09190a35050565b6000806002611a0f846001611ec0565b611a1991906120ee565b90508291505b81811015611a5257905080600281611a3781866120ee565b611a419190611ec0565b611a4b91906120ee565b9050611a1f565b50919050565b610c8c8061211183390190565b6000815180845260005b81811015611a8b57602081850181015186830182015201611a6f565b506000602082860101526020601f19601f83011685010191505092915050565b602081526000611abe6020830184611a65565b9392505050565b634e487b7160e01b600052604160045260246000fd5b600082601f830112611aec57600080fd5b813567ffffffffffffffff811115611b0657611b06611ac5565b604051601f8201601f19908116603f0116810167ffffffffffffffff81118282101715611b3557611b35611ac5565b604052818152838201602001851015611b4d57600080fd5b816020850160208301376000918101602001919091529392505050565b600060208284031215611b7c57600080fd5b813567ffffffffffffffff811115611b9357600080fd5b611b9f84828501611adb565b949350505050565b600060208284031215611bb957600080fd5b5035919050565b801515811461142457600080fd5b60008060008060008060c08789031215611be757600080fd5b863567ffffffffffffffff811115611bfe57600080fd5b611c0a89828a01611adb565b9650506020870135945060408701359350606087013592506080870135915060a0870135611c3781611bc0565b809150509295509295509295565b838152606060208201526000611c5e6060830185611a65565b8281036040840152611c708185611a65565b9695505050505050565b600060208284031215611c8c57600080fd5b81356001600160a01b0381168114611abe57600080fd5b60008060408385031215611cb657600080fd5b823567ffffffffffffffff811115611ccd57600080fd5b611cd985828601611adb565b925050602083013567ffffffffffffffff811115611cf657600080fd5b611d0285828601611adb565b9150509250929050565b87815260e060208201526000611d2560e0830189611a65565b6040830197909752506060810194909452608084019290925260a0830152151560c09091015292915050565b60008060408385031215611d6457600080fd5b50508035926020909101359150565b600080600080600060a08688031215611d8b57600080fd5b853567ffffffffffffffff811115611da257600080fd5b611dae88828901611adb565b955050602086013567ffffffffffffffff811115611dcb57600080fd5b611dd788828901611adb565b94505060408601359250606086013567ffffffffffffffff811115611dfb57600080fd5b611e0788828901611adb565b925050608086013567ffffffffffffffff811115611e2457600080fd5b611e3088828901611adb565b9150509295509295909350565b600080600060608486031215611e5257600080fd5b83359250602084013591506040840135611e6b81611bc0565b809150509250925092565b600181811c90821680611e8a57607f821691505b602082108103611a5257634e487b7160e01b600052602260045260246000fd5b634e487b7160e01b600052601160045260246000fd5b80820180821115610e6657610e66611eaa565b606081526000611ee66060830186611a65565b6001600160a01b039490941660208301525060400152919050565b81810381811115610e6657610e66611eaa565b600060018201611f2657611f26611eaa565b5060010190565b601f821115611f7757806000526020600020601f840160051c81016020851015611f545750805b601f840160051c820191505b81811015611f745760008155600101611f60565b50505b505050565b815167ffffffffffffffff811115611f9657611f96611ac5565b611faa81611fa48454611e76565b84611f2d565b6020601f821160018114611fde5760008315611fc65750848201515b600019600385901b1c1916600184901b178455611f74565b600084815260208120601f198516915b8281101561200e5787850151825560209485019460019092019101611fee565b508482101561202c5786840151600019600387901b60f8161c191681555b50505050600190811b01905550565b60408152600061204e6040830185611a65565b90508260208301529392505050565b634e487b7160e01b600052603260045260246000fd5b6040815260006120866040830185611a65565b82810360208401526120988185611a65565b95945050505050565b6000602082840312156120b357600080fd5b5051919050565b8082028115828204841417610e6657610e66611eaa565b6000602082840312156120e357600080fd5b8151611abe81611bc0565b60008261210b57634e487b7160e01b600052601260045260246000fd5b50049056fe60a060405234801561001057600080fd5b50604051610c8c380380610c8c83398101604081905261002f91610112565b8181600361003d8382610204565b50600461004a8282610204565b505033608052506102c2915050565b634e487b7160e01b600052604160045260246000fd5b600082601f83011261008057600080fd5b81516001600160401b0381111561009957610099610059565b604051601f8201601f19908116603f011681016001600160401b03811182821017156100c7576100c7610059565b6040528181528382016020018510156100df57600080fd5b60005b828110156100fe576020818601810151838301820152016100e2565b506000918101602001919091529392505050565b6000806040838503121561012557600080fd5b82516001600160401b0381111561013b57600080fd5b6101478582860161006f565b602085015190935090506001600160401b0381111561016557600080fd5b6101718582860161006f565b9150509250929050565b600181811c9082168061018f57607f821691505b6020821081036101af57634e487b7160e01b600052602260045260246000fd5b50919050565b601f8211156101ff57806000526020600020601f840160051c810160208510156101dc5750805b601f840160051c820191505b818110156101fc57600081556001016101e8565b50505b505050565b81516001600160401b0381111561021d5761021d610059565b6102318161022b845461017b565b846101b5565b6020601f821160018114610265576000831561024d5750848201515b600019600385901b1c1916600184901b1784556101fc565b600084815260208120601f198516915b828110156102955787850151825560209485019460019092019101610275565b50848210156102b35786840151600019600387901b60f8161c191681555b50505050600190811b01905550565b6080516109a16102eb60003960008181610128015281816102ec015261035301526109a16000f3fe608060405234801561001057600080fd5b50600436106100a95760003560e01c80633cf96af1116100715780633cf96af11461012357806370a082311461016257806395d89b411461018b578063a9059cbb14610193578063bec3fa17146101a6578063dd62ed3e146101bb57600080fd5b806306fdde03146100ae578063095ea7b3146100cc57806318160ddd146100ef57806323b872dd14610101578063313ce56714610114575b600080fd5b6100b66101f4565b6040516100c391906106d5565b60405180910390f35b6100df6100da36600461073f565b610286565b60405190151581526020016100c3565b6002545b6040519081526020016100c3565b6100df61010f366004610769565b6102a0565b604051601281526020016100c3565b61014a7f000000000000000000000000000000000000000000000000000000000000000081565b6040516001600160a01b0390911681526020016100c3565b6100f36101703660046107a6565b6001600160a01b031660009081526020819052604090205490565b6100b66102c4565b6100df6101a136600461073f565b6102d3565b6101b96101b436600461073f565b6102e1565b005b6100f36101c93660046107c8565b6001600160a01b03918216600090815260016020908152604080832093909416825291909152205490565b606060038054610203906107fb565b80601f016020809104026020016040519081016040528092919081815260200182805461022f906107fb565b801561027c5780601f106102515761010080835404028352916020019161027c565b820191906000526020600020905b81548152906001019060200180831161025f57829003601f168201915b5050505050905090565b6000336102948185856103b0565b60019150505b92915050565b6000336102ae8582856103c2565b6102b9858585610441565b506001949350505050565b606060048054610203906107fb565b600033610294818585610441565b336001600160a01b037f0000000000000000000000000000000000000000000000000000000000000000161461034d5760405162461bcd60e51b815260206004820152600c60248201526b1bdb9b1e481c1c9bda9958dd60a21b60448201526064015b60405180910390fd5b61038d827f000000000000000000000000000000000000000000000000000000000000000061037e6012600a610932565b6103889085610941565b6103b0565b6103ac8261039d6012600a610932565b6103a79084610941565b6104a0565b5050565b6103bd83838360016104d6565b505050565b6001600160a01b0383811660009081526001602090815260408083209386168352929052205460001981101561043b578181101561042c57604051637dc7a0d960e11b81526001600160a01b03841660048201526024810182905260448101839052606401610344565b61043b848484840360006104d6565b50505050565b6001600160a01b03831661046b57604051634b637e8f60e11b815260006004820152602401610344565b6001600160a01b0382166104955760405163ec442f0560e01b815260006004820152602401610344565b6103bd8383836105ab565b6001600160a01b0382166104ca5760405163ec442f0560e01b815260006004820152602401610344565b6103ac600083836105ab565b6001600160a01b0384166105005760405163e602df0560e01b815260006004820152602401610344565b6001600160a01b03831661052a57604051634a1406b160e11b815260006004820152602401610344565b6001600160a01b038085166000908152600160209081526040808320938716835292905220829055801561043b57826001600160a01b0316846001600160a01b03167f8c5be1e5ebec7d5bd14f71427d1e84f3dd0314c0f7b2291e5b200ac8c7c3b9258460405161059d91815260200190565b60405180910390a350505050565b6001600160a01b0383166105d65780600260008282546105cb9190610958565b909155506106489050565b6001600160a01b038316600090815260208190526040902054818110156106295760405163391434e360e21b81526001600160a01b03851660048201526024810182905260448101839052606401610344565b6001600160a01b03841660009081526020819052604090209082900390555b6001600160a01b03821661066457600280548290039055610683565b6001600160a01b03821660009081526020819052604090208054820190555b816001600160a01b0316836001600160a01b03167fddf252ad1be2c89b69c2b068fc378daa952ba7f163c4a11628f55a4df523b3ef836040516106c891815260200190565b60405180910390a3505050565b602081526000825180602084015260005b8181101561070357602081860181015160408684010152016106e6565b506000604082850101526040601f19601f83011684010191505092915050565b80356001600160a01b038116811461073a57600080fd5b919050565b6000806040838503121561075257600080fd5b61075b83610723565b946020939093013593505050565b60008060006060848603121561077e57600080fd5b61078784610723565b925061079560208501610723565b929592945050506040919091013590565b6000602082840312156107b857600080fd5b6107c182610723565b9392505050565b600080604083850312156107db57600080fd5b6107e483610723565b91506107f260208401610723565b90509250929050565b600181811c9082168061080f57607f821691505b60208210810361082f57634e487b7160e01b600052602260045260246000fd5b50919050565b634e487b7160e01b600052601160045260246000fd5b6001815b60018411156108865780850481111561086a5761086a610835565b600184161561087857908102905b60019390931c92800261084f565b935093915050565b60008261089d5750600161029a565b816108aa5750600061029a565b81600181146108c057600281146108ca576108e6565b600191505061029a565b60ff8411156108db576108db610835565b50506001821b61029a565b5060208310610133831016604e8410600b8410161715610909575081810a61029a565b610916600019848461084b565b806000190482111561092a5761092a610835565b029392505050565b60006107c160ff84168361088e565b808202811582820484141761029a5761029a610835565b8082018082111561029a5761029a61083556fea26469706673582212201d5ae787ffa3a45908360abf4b751e36935652e8300fab1bacd0183ea79c41f464736f6c634300081c0033a2646970667358221220eb356488ca09c22e40a093dbbfda96430407648c25e3aa36a625e3398efef76e64736f6c634300081c0033a26469706673582212208fc1c832b500c23d0655465d24e7726b2eac2bf490947568a442127c17548efb64736f6c634300081c0033",
  "linkReferences": {},
  "deployedLinkReferences": {}
}