{
  "_format": "hh-sol-artifact-1",
  "contractName": "User",
  "sourceName": "contracts/User.sol",
  "abi": [
    {
      "inputs": [
        {
          "internalType": "uint256",
          "name": "projectId",
          "type": "uint256"
        }
      ],
      "name": "addInvestedProject",
      "outputs": [],
      "stateMutability": "nonpayable",
      "type": "function"
    },
    {
      "inputs": [
        {
          "internalType": "uint256",
          "name": "projectId",
          "type": "uint256"
        }
      ],
      "name": "addOwnedProject",
      "outputs": [],
      "stateMutability": "nonpayable",
      "type": "function"
    },
    {
      "inputs": [
        {
          "internalType": "string",
          "name": "username",
          "type": "string"
        },
        {
          "internalType": "string",
          "name": "name",
          "type": "string"
        },
        {
          "internalType": "string",
          "name": "profile",
          "type": "string"
        }
      ],
      "name": "addUser",
      "outputs": [],
      "stateMutability": "nonpayable",
      "type": "function"
    },
    {
      "inputs": [
        {
          "internalType": "address",
          "name": "userAddr",
          "type": "address"
        },
        {
          "internalType": "string",
          "name": "newName",
          "type": "string"
        }
      ],
      "name": "changeUsername",
      "outputs": [],
      "stateMutability": "nonpayable",
      "type": "function"
    },
    {
      "inputs": [
        {
          "internalType": "address",
          "name": "userAddr",
          "type": "address"
        }
      ],
      "name": "getInvestedProjects",
      "outputs": [
        {
          "internalType": "uint256[]",
          "name": "",
          "type": "uint256[]"
        }
      ],
      "stateMutability": "view",
      "type": "function"
    },
    {
      "inputs": [
        {
          "internalType": "address",
          "name": "userAddr",
          "type": "address"
        }
      ],
      "name": "getOwnedProjects",
      "outputs": [
        {
          "internalType": "uint256[]",
          "name": "",
          "type": "uint256[]"
        }
      ],
      "stateMutability": "view",
      "type": "function"
    },
    {
      "inputs": [
        {
          "internalType": "address",
          "name": "userAddr",
          "type": "address"
        }
      ],
      "name": "getUser",
      "outputs": [
        {
          "internalType": "address",
          "name": "",
          "type": "address"
        },
        {
          "internalType": "string",
          "name": "",
          "type": "string"
        },
        {
          "internalType": "string",
          "name": "",
          "type": "string"
        },
        {
          "internalType": "string",
          "name": "",
          "type": "string"
        }
      ],
      "stateMutability": "view",
      "type": "function"
    },
    {
      "inputs": [],
      "name": "totalUsers",
      "outputs": [
        {
          "internalType": "uint256",
          "name": "",
          "type": "uint256"
        }
      ],
      "stateMutability": "view",
      "type": "function"
    },
    {
      "inputs": [
        {
          "internalType": "string",
          "name": "",
          "type": "string"
        }
      ],
      "name": "userNameToWallet",
      "outputs": [
        {
          "internalType": "address",
          "name": "",
          "type": "address"
        }
      ],
      "stateMutability": "view",
      "type": "function"
    },
    {
      "inputs": [
        {
          "internalType": "address",
          "name": "",
          "type": "address"
        }
      ],
      "name": "users",
      "outputs": [
        {
          "internalType": "address",
          "name": "userWallet",
          "type": "address"
        },
        {
          "internalType": "string",
          "name": "userName",
          "type": "string"
        },
        {
          "internalType": "string",
          "name": "name",
          "type": "string"
        },
        {
          "internalType": "string",
          "name": "userProfile",
          "type": "string"
        }
      ],
      "stateMutability": "view",
      "type": "function"
    }
  ],
  "bytecode": "0x6080604052348015600f57600080fd5b50610f788061001f6000396000f3fe608060405234801561001057600080fd5b506004361061009e5760003560e01c8063a87430ba11610066578063a87430ba14610163578063b9aa11b914610176578063bff1f9e114610189578063c9f107f6146101a0578063d0cc47bb146101b357600080fd5b806335debf2d146100a357806349f6e887146100cc5780636f77926b146101185780638d5052631461013b57806395c5fed41461014e575b600080fd5b6100b66100b1366004610ad0565b6101c6565b6040516100c39190610af2565b60405180910390f35b6101006100da366004610bda565b80516020818301810180516002825292820191909301209152546001600160a01b031681565b6040516001600160a01b0390911681526020016100c3565b61012b610126366004610ad0565b610235565b6040516100c39493929190610c67565b6100b6610149366004610ad0565b6104fc565b61016161015c366004610cbc565b610569565b005b61012b610171366004610ad0565b6106ef565b610161610184366004610d50565b6108bb565b61019260005481565b6040519081526020016100c3565b6101616101ae366004610d50565b610935565b6101616101c1366004610d69565b6109af565b6001600160a01b03811660009081526001602090815260409182902060040180548351818402810184019094528084526060939283018282801561022957602002820191906000526020600020905b815481526020019060010190808311610215575b50505050509050919050565b6001600160a01b038082166000908152600160208181526040808420815160c081019092528054909516815291840180549394606094859485948894919392908401919061028290610db7565b80601f01602080910402602001604051908101604052809291908181526020018280546102ae90610db7565b80156102fb5780601f106102d0576101008083540402835291602001916102fb565b820191906000526020600020905b8154815290600101906020018083116102de57829003601f168201915b5050505050815260200160028201805461031490610db7565b80601f016020809104026020016040519081016040528092919081815260200182805461034090610db7565b801561038d5780601f106103625761010080835404028352916020019161038d565b820191906000526020600020905b81548152906001019060200180831161037057829003601f168201915b505050505081526020016003820180546103a690610db7565b80601f01602080910402602001604051908101604052809291908181526020018280546103d290610db7565b801561041f5780601f106103f45761010080835404028352916020019161041f565b820191906000526020600020905b81548152906001019060200180831161040257829003601f168201915b505050505081526020016004820180548060200260200160405190810160405280929190818152602001828054801561047757602002820191906000526020600020905b815481526020019060010190808311610463575b50505050508152602001600582018054806020026020016040519081016040528092919081815260200182805480156104cf57602002820191906000526020600020905b8154815260200190600101908083116104bb575b505050919092525050815160208301516040840151606090940151919a9099509297509550909350505050565b6001600160a01b03811660009081526001602090815260409182902060050180548351818402810184019094528084526060939283018282801561022957602002820191906000526020600020908154815260200190600101908083116102155750505050509050919050565b336000908152600160205260409020546001600160a01b0316156105ca5760405162461bcd60e51b81526020600482015260136024820152725573657220616c72656164792065786973747360681b60448201526064015b60405180910390fd5b60006001600160a01b03166002846040516105e59190610df1565b908152604051908190036020019020546001600160a01b0316146106475760405162461bcd60e51b815260206004820152601960248201527843686f6f736520646966666572656e7420757365726e616d6560381b60448201526064016105c1565b60008054908061065683610e0d565b909155505033600081815260016020819052604090912080546001600160a01b0319169092178255810161068a8582610e83565b50600281016106998482610e83565b50600381016106a88382610e83565b50336002846040516106ba9190610df1565b90815260405190819003602001902080546001600160a01b03929092166001600160a01b031990921691909117905550505050565b6001602081905260009182526040909120805491810180546001600160a01b039093169261071c90610db7565b80601f016020809104026020016040519081016040528092919081815260200182805461074890610db7565b80156107955780601f1061076a57610100808354040283529160200191610795565b820191906000526020600020905b81548152906001019060200180831161077857829003601f168201915b5050505050908060020180546107aa90610db7565b80601f01602080910402602001604051908101604052809291908181526020018280546107d690610db7565b80156108235780601f106107f857610100808354040283529160200191610823565b820191906000526020600020905b81548152906001019060200180831161080657829003601f168201915b50505050509080600301805461083890610db7565b80601f016020809104026020016040519081016040528092919081815260200182805461086490610db7565b80156108b15780601f10610886576101008083540402835291602001916108b1565b820191906000526020600020905b81548152906001019060200180831161089457829003601f168201915b5050505050905084565b336000908152600160205260409020546001600160a01b03166109115760405162461bcd60e51b815260206004820152600e60248201526d155cd95c881b9bdd08199bdd5b9960921b60448201526064016105c1565b33600090815260016020818152604083206005018054928301815583529091200155565b336000908152600160205260409020546001600160a01b031661098b5760405162461bcd60e51b815260206004820152600e60248201526d155cd95c881b9bdd08199bdd5b9960921b60448201526064016105c1565b33600090815260016020818152604083206004018054928301815583529091200155565b6001600160a01b038083166000908152600160205260409020548391163314610a0b5760405162461bcd60e51b815260206004820152600e60248201526d139bdd08185d5d1a1bdc9a5e995960921b60448201526064016105c1565b60006001600160a01b0316600283604051610a269190610df1565b908152604051908190036020019020546001600160a01b031614610a885760405162461bcd60e51b815260206004820152601960248201527843686f6f736520646966666572656e7420757365726e616d6560381b60448201526064016105c1565b6001600160a01b038316600090815260016020819052604090912001610aae8382610e83565b50505050565b80356001600160a01b0381168114610acb57600080fd5b919050565b600060208284031215610ae257600080fd5b610aeb82610ab4565b9392505050565b602080825282518282018190526000918401906040840190835b81811015610b2a578351835260209384019390920191600101610b0c565b509095945050505050565b634e487b7160e01b600052604160045260246000fd5b600082601f830112610b5c57600080fd5b813567ffffffffffffffff811115610b7657610b76610b35565b604051601f8201601f19908116603f0116810167ffffffffffffffff81118282101715610ba557610ba5610b35565b604052818152838201602001851015610bbd57600080fd5b816020850160208301376000918101602001919091529392505050565b600060208284031215610bec57600080fd5b813567ffffffffffffffff811115610c0357600080fd5b610c0f84828501610b4b565b949350505050565b60005b83811015610c32578181015183820152602001610c1a565b50506000910152565b60008151808452610c53816020860160208601610c17565b601f01601f19169290920160200192915050565b6001600160a01b0385168152608060208201819052600090610c8b90830186610c3b565b8281036040840152610c9d8186610c3b565b90508281036060840152610cb18185610c3b565b979650505050505050565b600080600060608486031215610cd157600080fd5b833567ffffffffffffffff811115610ce857600080fd5b610cf486828701610b4b565b935050602084013567ffffffffffffffff811115610d1157600080fd5b610d1d86828701610b4b565b925050604084013567ffffffffffffffff811115610d3a57600080fd5b610d4686828701610b4b565b9150509250925092565b600060208284031215610d6257600080fd5b5035919050565b60008060408385031215610d7c57600080fd5b610d8583610ab4565b9150602083013567ffffffffffffffff811115610da157600080fd5b610dad85828601610b4b565b9150509250929050565b600181811c90821680610dcb57607f821691505b602082108103610deb57634e487b7160e01b600052602260045260246000fd5b50919050565b60008251610e03818460208701610c17565b9190910192915050565b600060018201610e2d57634e487b7160e01b600052601160045260246000fd5b5060010190565b601f821115610e7e57806000526020600020601f840160051c81016020851015610e5b5750805b601f840160051c820191505b81811015610e7b5760008155600101610e67565b50505b505050565b815167ffffffffffffffff811115610e9d57610e9d610b35565b610eb181610eab8454610db7565b84610e34565b6020601f821160018114610ee55760008315610ecd5750848201515b600019600385901b1c1916600184901b178455610e7b565b600084815260208120601f198516915b82811015610f155787850151825560209485019460019092019101610ef5565b5084821015610f335786840151600019600387901b60f8161c191681555b50505050600190811b0190555056fea2646970667358221220b37627fc67b6d05e49134f902021ad396f27643456028947c6c77340aff72ada64736f6c634300081c0033",
  "linkReferences": {},
  "deployedLinkReferences": {}
}